:020000040000FA
:020000006A286C
:040002000034003492
:08000800A700030EA8008312FB
:1000100003138B183428831203130310A01B03143B
:10002000A00D2008870020181A28A0181C282019C5
:100030001E282028220821282308212824082128D6
:100040002508A900003087002908850020088700BE
:10005000831203130B118312031364308100280EE3
:100060008300A70E270E09000C12831203132C081D
:10007000990083160313981C3B28831203132D0841
:10008000990083160313981C4328831203132E0828
:10009000990083160313981C4B28831203132F080F
:1000A000990083160313981C5328831203133F30BF
:1000B000A500A400A300A200AF01AE01AD01AC01F8
:1000C000831203138B1083120313280E8300A70ED1
:1000D000270E09008316031788018901831603136D
:1000E0000130860085018701F030880083160313F4
:1000F000243098008312031380309800831603176E
:100100008711831603131930990083160313843063
:100110008100831603130C1683120313B0308B0077
:1001200083120313643081001130A00087003F3038
:10013000A500A400A300A2008500AC01AD01AE01A2
:10014000AF01EE30A100A60121088800081EB728E3
:10015000A60A881EB728A60A081FB728A60A881F5D
:10016000B728A60A0314A11F0310A10DA428C120BB
:100170000F30A6052608B000D620A600E820F920FA
:10018000A128831203138B1383120313FF30AA00D9
:100190000C30AB00AB0BCD28D028AA0BCD28CA2839
:1001A000831203138B178312031308002608820798
:1001B0003F3406345B344F3466346D347D34073459
:1001C0007F3467345F347C3439345E347B3471344B
:1001D0002308A2002408A3002508A4002608A500DF
:1001E0002D08AC002E08AD002F08AE003008AF007F
:1001F0000800831203138B1383120313003087004C
:10020000F0300805F03C031D002920088700831208
:0A02100003138B1783120313080079
:02400E00E42CA0
:00000001FF
