:020000040000FA
:020000002E28A8
:040002000034003492
:08000800A700030EA80003107D
:10001000A01B0314A00D2008870020181428A01886
:100020001628201918281A2822081B2823081B28FC
:1000300024081B282508A90000308700290885000E
:1000400020088700831203130B11831203136430FB
:100050008100280E8300A70E270E090083160317C0
:10006000880183160313860185018701F03088001B
:10007000831603138430810083120313A0308B0096
:1000800083120313643081001130A00087003F30D9
:10009000A500A400A300A2008500EE30A100A601E7
:1000A00021088800081E6328A60A881E6328A60A5D
:1000B000081F6328A60A881F6328A60A0314A11F25
:1000C0000310A10D50286B200F30A6058020A6003C
:1000D00092209B204D28831203138B13831203134A
:1000E000FF30AA000530AB00AB0B77287A28AA0BAB
:1000F00077287428831203138B17831203130800C5
:10010000260882073F3406345B344F3466346D343E
:100110007D3407347F3467345F347C3439345E3463
:100120007B3471342308A2002408A3002508A4000E
:100130002608A5000800831203138B1383120313F0
:1001400000308700F0300805F03C031DA22820088D
:0E0150008700831203138B178312031308001A
:02400E00E43C90
:00000001FF
